{
  "_format": "hh3-artifact-1",
  "contractName": "SwapRouter",
  "sourceName": "contracts/SwapRouter.sol",
  "abi": [
    {
      "inputs": [],
      "stateMutability": "nonpayable",
      "type": "constructor"
    },
    {
      "inputs": [],
      "name": "InvalidCorner",
      "type": "error"
    },
    {
      "inputs": [],
      "name": "MarketAlreadyExists",
      "type": "error"
    },
    {
      "inputs": [],
      "name": "MarketNotFound",
      "type": "error"
    },
    {
      "anonymous": false,
      "inputs": [
        {
          "indexed": true,
          "internalType": "string",
          "name": "marketName",
          "type": "string"
        },
        {
          "indexed": false,
          "internalType": "string",
          "name": "corner",
          "type": "string"
        },
        {
          "indexed": true,
          "internalType": "address",
          "name": "buyer",
          "type": "address"
        },
        {
          "indexed": false,
          "internalType": "uint256",
          "name": "amount",
          "type": "uint256"
        },
        {
          "indexed": true,
          "internalType": "address",
          "name": "token",
          "type": "address"
        }
      ],
      "name": "CornerPurchased",
      "type": "event"
    },
    {
      "anonymous": false,
      "inputs": [
        {
          "indexed": true,
          "internalType": "string",
          "name": "marketName",
          "type": "string"
        },
        {
          "indexed": false,
          "internalType": "address[8]",
          "name": "tokens",
          "type": "address[8]"
        },
        {
          "indexed": false,
          "internalType": "address[8]",
          "name": "receivers",
          "type": "address[8]"
        }
      ],
      "name": "MarketCreated",
      "type": "event"
    },
    {
      "inputs": [
        {
          "internalType": "uint256",
          "name": "",
          "type": "uint256"
        }
      ],
      "name": "CORNERS",
      "outputs": [
        {
          "internalType": "string",
          "name": "",
          "type": "string"
        }
      ],
      "stateMutability": "view",
      "type": "function"
    },
    {
      "inputs": [
        {
          "internalType": "string",
          "name": "marketName",
          "type": "string"
        },
        {
          "internalType": "string",
          "name": "corner",
          "type": "string"
        },
        {
          "internalType": "address",
          "name": "buyer",
          "type": "address"
        }
      ],
      "name": "buyCorner",
      "outputs": [],
      "stateMutability": "payable",
      "type": "function"
    },
    {
      "inputs": [
        {
          "internalType": "string",
          "name": "",
          "type": "string"
        },
        {
          "internalType": "string",
          "name": "",
          "type": "string"
        }
      ],
      "name": "cornerReceivers",
      "outputs": [
        {
          "internalType": "address",
          "name": "",
          "type": "address"
        }
      ],
      "stateMutability": "view",
      "type": "function"
    },
    {
      "inputs": [
        {
          "internalType": "string",
          "name": "",
          "type": "string"
        },
        {
          "internalType": "string",
          "name": "",
          "type": "string"
        }
      ],
      "name": "cornerTokens",
      "outputs": [
        {
          "internalType": "address",
          "name": "",
          "type": "address"
        }
      ],
      "stateMutability": "view",
      "type": "function"
    },
    {
      "inputs": [
        {
          "internalType": "string",
          "name": "marketName",
          "type": "string"
        }
      ],
      "name": "createMarket",
      "outputs": [
        {
          "internalType": "address[8]",
          "name": "tokens",
          "type": "address[8]"
        },
        {
          "internalType": "address[8]",
          "name": "receivers",
          "type": "address[8]"
        }
      ],
      "stateMutability": "nonpayable",
      "type": "function"
    },
    {
      "inputs": [
        {
          "internalType": "string",
          "name": "marketName",
          "type": "string"
        }
      ],
      "name": "getMarketReceivers",
      "outputs": [
        {
          "internalType": "address[8]",
          "name": "receivers",
          "type": "address[8]"
        }
      ],
      "stateMutability": "view",
      "type": "function"
    },
    {
      "inputs": [
        {
          "internalType": "string",
          "name": "marketName",
          "type": "string"
        }
      ],
      "name": "getMarketTokens",
      "outputs": [
        {
          "internalType": "address[8]",
          "name": "tokens",
          "type": "address[8]"
        }
      ],
      "stateMutability": "view",
      "type": "function"
    },
    {
      "inputs": [
        {
          "internalType": "string",
          "name": "",
          "type": "string"
        }
      ],
      "name": "marketExists",
      "outputs": [
        {
          "internalType": "bool",
          "name": "",
          "type": "bool"
        }
      ],
      "stateMutability": "view",
      "type": "function"
    },
    {
      "inputs": [],
      "name": "owner",
      "outputs": [
        {
          "internalType": "address",
          "name": "",
          "type": "address"
        }
      ],
      "stateMutability": "view",
      "type": "function"
    },
    {
      "inputs": [],
      "name": "withdraw",
      "outputs": [],
      "stateMutability": "nonpayable",
      "type": "function"
    },
    {
      "stateMutability": "payable",
      "type": "receive"
    }
  ],
  "bytecode": "0x60036101808181526203030360ec1b6101a05260809081526101c08281526230303160e81b6101e05260a0526102008281526203031360ec1b6102205260c0526102408281526230313160e81b6102605260e0526102808281526203130360ec1b6102a052610100526102c08281526231303160e81b6102e052610120526103008281526203131360ec1b61032052610140526103806040526103409182526231313160e81b61036052610160919091526100bd905f9060086100e1565b503480156100c9575f5ffd5b50600b80546001600160a01b031916331790556102e6565b826008810192821561011a579160200282015b8281111561011a578251829061010a908261022c565b50916020019190600101906100f4565b5061012692915061012a565b5090565b80821115610126575f61013d8282610146565b5060010161012a565b508054610152906101a8565b5f825580601f10610161575050565b601f0160209004905f5260205f209081019061017d9190610180565b50565b5b80821115610126575f8155600101610181565b634e487b7160e01b5f52604160045260245ffd5b600181811c908216806101bc57607f821691505b6020821081036101da57634e487b7160e01b5f52602260045260245ffd5b50919050565b601f82111561022757805f5260205f20601f840160051c810160208510156102055750805b601f840160051c820191505b81811015610224575f8155600101610211565b50505b505050565b81516001600160401b0381111561024557610245610194565b6102598161025384546101a8565b846101e0565b6020601f82116001811461028b575f83156102745750848201515b5f19600385901b1c1916600184901b178455610224565b5f84815260208120601f198516915b828110156102ba578785015182556020948501946001909201910161029a565b50848210156102d757868401515f19600387901b60f8161c191681555b50505050600190811b01905550565b61213e806102f35f395ff3fe608060405260043610610092575f3560e01c8063b729bc0911610057578063b729bc0914610179578063cbef216a146101a5578063e0f88cde146101c4578063e44963a114610221578063ec38b50d1461024d575f5ffd5b80633ccfd60b1461009d5780633fed6ced146100b357806354888f55146101025780635cc0a4f31461012f5780638da5cb5b14610142575f5ffd5b3661009957005b5f5ffd5b3480156100a8575f5ffd5b506100b16102aa565b005b3480156100be575f5ffd5b506100ed6100cd366004610b74565b8051602081830181018051600a8252928201919093012091525460ff1681565b60405190151581526020015b60405180910390f35b34801561010d575f5ffd5b5061012161011c366004610b74565b61038b565b6040516100f9929190610bdf565b6100b161013d366004610c03565b6106e1565b34801561014d575f5ffd5b50600b54610161906001600160a01b031681565b6040516001600160a01b0390911681526020016100f9565b348015610184575f5ffd5b50610198610193366004610b74565b61084c565b6040516100f99190610c86565b3480156101b0575f5ffd5b506101986101bf366004610b74565b610929565b3480156101cf575f5ffd5b506101616101de366004610c9b565b815160208184018101805160088252928201948201949094209190935281518083018401805192815290840192909301919091209152546001600160a01b031681565b34801561022c575f5ffd5b5061024061023b366004610d00565b610a00565b6040516100f99190610d45565b348015610258575f5ffd5b50610161610267366004610c9b565b815160208184018101805160098252928201948201949094209190935281518083018401805192815290840192909301919091209152546001600160a01b031681565b600b546001600160a01b031633146102f65760405162461bcd60e51b815260206004820152600a60248201526927b7363c9037bbb732b960b11b60448201526064015b60405180910390fd5b600b546040515f916001600160a01b03169047908381818185875af1925050503d805f8114610340576040519150601f19603f3d011682016040523d82523d5f602084013e610345565b606091505b50509050806103885760405162461bcd60e51b815260206004820152600f60248201526e151c985b9cd9995c8819985a5b1959608a1b60448201526064016102ed565b50565b610393610a9c565b61039b610a9c565b600a836040516103ab9190610d6e565b9081526040519081900360200190205460ff16156103dc57604051630313b28560e01b815260040160405180910390fd5b6001600a846040516103ee9190610d6e565b908152604051908190036020019020805491151560ff199092169190911790555f5b600881101561068c575f5f826008811061042c5761042c610d79565b01805461043890610d8d565b80601f016020809104026020016040519081016040528092919081815260200182805461046490610d8d565b80156104af5780601f10610486576101008083540402835291602001916104af565b820191905f5260205f20905b81548152906001019060200180831161049257829003601f168201915b505050505090505f85826040516020016104ca929190610dbf565b60405160208183030381529060405290505f86836040516020016104ef929190610dfe565b60405160208183030381529060405290505f82823060405161051090610abb565b61051c93929190610e1d565b604051809103905ff080158015610535573d5f5f3e3d5ffd5b5090508087866008811061054b5761054b610d79565b6001600160a01b0390921660209290920201526040518190600890610571908b90610d6e565b90815260200160405180910390208560405161058d9190610d6e565b90815260200160405180910390205f6101000a8154816001600160a01b0302191690836001600160a01b031602179055505f3089866040516105ce90610ac8565b6105da93929190610e5a565b604051809103905ff0801580156105f3573d5f5f3e3d5ffd5b5090508087876008811061060957610609610d79565b6001600160a01b039092166020929092020152604051819060099061062f908c90610d6e565b90815260200160405180910390208660405161064b9190610d6e565b90815260405190819003602001902080546001600160a01b03929092166001600160a01b031990921691909117905550505060019290920191506104109050565b508260405161069b9190610d6e565b60405180910390207f83531eb4948d168bd8cae72f28e1576ccfa0f8eb9e54963fef98986b1646695a83836040516106d4929190610bdf565b60405180910390a2915091565b600a836040516106f19190610d6e565b9081526040519081900360200190205460ff16610721576040516307db1be560e41b815260040160405180910390fd5b5f6008846040516107329190610d6e565b90815260200160405180910390208360405161074e9190610d6e565b908152604051908190036020019020546001600160a01b03169050806107875760405163fb4c09a360e01b815260040160405180910390fd5b6040516340c10f1960e01b81526001600160a01b0383811660048301523460248301528216906340c10f19906044015f604051808303815f87803b1580156107cd575f5ffd5b505af11580156107df573d5f5f3e3d5ffd5b50505050806001600160a01b0316826001600160a01b0316856040516108059190610d6e565b60405180910390207f53d269bb260bd555ac22f0840745b5a8e21c88069dab1376711001409cf2c179863460405161083e929190610e99565b60405180910390a450505050565b610854610a9c565b600a826040516108649190610d6e565b9081526040519081900360200190205460ff16610894576040516307db1be560e41b815260040160405180910390fd5b5f5b6008811015610923576009836040516108af9190610d6e565b90815260200160405180910390205f82600881106108cf576108cf610d79565b016040516108dd9190610eba565b908152604051908190036020019020546001600160a01b031682826008811061090857610908610d79565b6001600160a01b039092166020929092020152600101610896565b50919050565b610931610a9c565b600a826040516109419190610d6e565b9081526040519081900360200190205460ff16610971576040516307db1be560e41b815260040160405180910390fd5b5f5b60088110156109235760088360405161098c9190610d6e565b90815260200160405180910390205f82600881106109ac576109ac610d79565b016040516109ba9190610eba565b908152604051908190036020019020546001600160a01b03168282600881106109e5576109e5610d79565b6001600160a01b039092166020929092020152600101610973565b5f8160088110610a0e575f80fd5b018054909150610a1d90610d8d565b80601f0160208091040260200160405190810160405280929190818152602001828054610a4990610d8d565b8015610a945780601f10610a6b57610100808354040283529160200191610a94565b820191905f5260205f20905b815481529060010190602001808311610a7757829003601f168201915b505050505081565b6040518061010001604052806008906020820280368337509192915050565b610b2d80610f5783390190565b61068580611a8483390190565b634e487b7160e01b5f52604160045260245ffd5b5f82601f830112610af8575f5ffd5b813567ffffffffffffffff811115610b1257610b12610ad5565b604051601f8201601f19908116603f0116810167ffffffffffffffff81118282101715610b4157610b41610ad5565b604052818152838201602001851015610b58575f5ffd5b816020850160208301375f918101602001919091529392505050565b5f60208284031215610b84575f5ffd5b813567ffffffffffffffff811115610b9a575f5ffd5b610ba684828501610ae9565b949350505050565b805f5b6008811015610bd95781516001600160a01b0316845260209384019390910190600101610bb1565b50505050565b6102008101610bee8285610bae565b610bfc610100830184610bae565b9392505050565b5f5f5f60608486031215610c15575f5ffd5b833567ffffffffffffffff811115610c2b575f5ffd5b610c3786828701610ae9565b935050602084013567ffffffffffffffff811115610c53575f5ffd5b610c5f86828701610ae9565b92505060408401356001600160a01b0381168114610c7b575f5ffd5b809150509250925092565b6101008101610c958284610bae565b92915050565b5f5f60408385031215610cac575f5ffd5b823567ffffffffffffffff811115610cc2575f5ffd5b610cce85828601610ae9565b925050602083013567ffffffffffffffff811115610cea575f5ffd5b610cf685828601610ae9565b9150509250929050565b5f60208284031215610d10575f5ffd5b5035919050565b5f81518084528060208401602086015e5f602082860101526020601f19601f83011685010191505092915050565b602081525f610bfc6020830184610d17565b5f81518060208401855e5f93019283525090919050565b5f610bfc8284610d57565b634e487b7160e01b5f52603260045260245ffd5b600181811c90821680610da157607f821691505b60208210810361092357634e487b7160e01b5f52602260045260245ffd5b66026b0b935b2ba160cd1b81525f610dda6007830185610d57565b6701021b7b93732b9160c51b8152610df56008820185610d57565b95945050505050565b5f610e098285610d57565b602d60f81b8152610df56001820185610d57565b606081525f610e2f6060830186610d17565b8281036020840152610e418186610d17565b91505060018060a01b0383166040830152949350505050565b6001600160a01b03841681526060602082018190525f90610e7d90830185610d17565b8281036040840152610e8f8185610d17565b9695505050505050565b604081525f610eab6040830185610d17565b90508260208301529392505050565b5f5f83545f8160011c90506001821680610ed557607f821691505b602082108103610ef357634e487b7160e01b5f52602260045260245ffd5b808015610f075760018114610f1c57610f4a565b60ff1984168752821515830287019450610f4a565b5f888152602090205f5b84811015610f4257815489820152600190910190602001610f26565b505082870194505b5092969550505050505056fe60a060405234801561000f575f5ffd5b50604051610b2d380380610b2d83398101604081905261002e916100fd565b8282600361003c8382610206565b5060046100498282610206565b5050506001600160a01b0316608052506102c09050565b634e487b7160e01b5f52604160045260245ffd5b5f82601f830112610083575f5ffd5b81516001600160401b0381111561009c5761009c610060565b604051601f8201601f19908116603f011681016001600160401b03811182821017156100ca576100ca610060565b6040528181528382016020018510156100e1575f5ffd5b8160208501602083015e5f918101602001919091529392505050565b5f5f5f6060848603121561010f575f5ffd5b83516001600160401b03811115610124575f5ffd5b61013086828701610074565b602086015190945090506001600160401b0381111561014d575f5ffd5b61015986828701610074565b604086015190935090506001600160a01b0381168114610177575f5ffd5b809150509250925092565b600181811c9082168061019657607f821691505b6020821081036101b457634e487b7160e01b5f52602260045260245ffd5b50919050565b601f82111561020157805f5260205f20601f840160051c810160208510156101df5750805b601f840160051c820191505b818110156101fe575f81556001016101eb565b50505b505050565b81516001600160401b0381111561021f5761021f610060565b6102338161022d8454610182565b846101ba565b6020601f821160018114610265575f831561024e5750848201515b5f19600385901b1c1916600184901b1784556101fe565b5f84815260208120601f198516915b828110156102945787850151825560209485019460019092019101610274565b50848210156102b157868401515f19600387901b60f8161c191681555b50505050600190811b01905550565b60805161084f6102de5f395f818160d801526102e3015261084f5ff3fe608060405234801561000f575f5ffd5b50600436106100b1575f3560e01c806340c10f191161006e57806340c10f191461016957806342966c681461017e57806370a082311461019157806395d89b41146101b9578063a9059cbb146101c1578063dd62ed3e146101d4575f5ffd5b806306fdde03146100b557806307546172146100d3578063095ea7b31461011257806318160ddd1461013557806323b872dd14610147578063313ce5671461015a575b5f5ffd5b6100bd61020c565b6040516100ca91906106a8565b60405180910390f35b6100fa7f000000000000000000000000000000000000000000000000000000000000000081565b6040516001600160a01b0390911681526020016100ca565b6101256101203660046106f8565b61029c565b60405190151581526020016100ca565b6002545b6040519081526020016100ca565b610125610155366004610720565b6102b5565b604051601281526020016100ca565b61017c6101773660046106f8565b6102d8565b005b61017c61018c36600461075a565b61032f565b61013961019f366004610771565b6001600160a01b03165f9081526020819052604090205490565b6100bd61033c565b6101256101cf3660046106f8565b61034b565b6101396101e2366004610791565b6001600160a01b039182165f90815260016020908152604080832093909416825291909152205490565b60606003805461021b906107c2565b80601f0160208091040260200160405190810160405280929190818152602001828054610247906107c2565b80156102925780601f1061026957610100808354040283529160200191610292565b820191905f5260205f20905b81548152906001019060200180831161027557829003601f168201915b5050505050905090565b5f336102a9818585610358565b60019150505b92915050565b5f336102c285828561036a565b6102cd8585856103eb565b506001949350505050565b336001600160a01b037f0000000000000000000000000000000000000000000000000000000000000000161461032157604051639cdc2ed560e01b815260040160405180910390fd5b61032b8282610448565b5050565b610339338261047c565b50565b60606004805461021b906107c2565b5f336102a98185856103eb565b61036583838360016104b0565b505050565b6001600160a01b038381165f908152600160209081526040808320938616835292905220545f198110156103e557818110156103d757604051637dc7a0d960e11b81526001600160a01b038416600482015260248101829052604481018390526064015b60405180910390fd5b6103e584848484035f6104b0565b50505050565b6001600160a01b03831661041457604051634b637e8f60e11b81525f60048201526024016103ce565b6001600160a01b03821661043d5760405163ec442f0560e01b81525f60048201526024016103ce565b610365838383610582565b6001600160a01b0382166104715760405163ec442f0560e01b81525f60048201526024016103ce565b61032b5f8383610582565b6001600160a01b0382166104a557604051634b637e8f60e11b81525f60048201526024016103ce565b61032b825f83610582565b6001600160a01b0384166104d95760405163e602df0560e01b81525f60048201526024016103ce565b6001600160a01b03831661050257604051634a1406b160e11b81525f60048201526024016103ce565b6001600160a01b038085165f90815260016020908152604080832093871683529290522082905580156103e557826001600160a01b0316846001600160a01b03167f8c5be1e5ebec7d5bd14f71427d1e84f3dd0314c0f7b2291e5b200ac8c7c3b9258460405161057491815260200190565b60405180910390a350505050565b6001600160a01b0383166105ac578060025f8282546105a191906107fa565b9091555061061c9050565b6001600160a01b0383165f90815260208190526040902054818110156105fe5760405163391434e360e21b81526001600160a01b038516600482015260248101829052604481018390526064016103ce565b6001600160a01b0384165f9081526020819052604090209082900390555b6001600160a01b03821661063857600280548290039055610656565b6001600160a01b0382165f9081526020819052604090208054820190555b816001600160a01b0316836001600160a01b03167fddf252ad1be2c89b69c2b068fc378daa952ba7f163c4a11628f55a4df523b3ef8360405161069b91815260200190565b60405180910390a3505050565b602081525f82518060208401528060208501604085015e5f604082850101526040601f19601f83011684010191505092915050565b80356001600160a01b03811681146106f3575f5ffd5b919050565b5f5f60408385031215610709575f5ffd5b610712836106dd565b946020939093013593505050565b5f5f5f60608486031215610732575f5ffd5b61073b846106dd565b9250610749602085016106dd565b929592945050506040919091013590565b5f6020828403121561076a575f5ffd5b5035919050565b5f60208284031215610781575f5ffd5b61078a826106dd565b9392505050565b5f5f604083850312156107a2575f5ffd5b6107ab836106dd565b91506107b9602084016106dd565b90509250929050565b600181811c908216806107d657607f821691505b6020821081036107f457634e487b7160e01b5f52602260045260245ffd5b50919050565b808201808211156102af57634e487b7160e01b5f52601160045260245ffdfea264697066735822122046fdd5d1509719c4add776e68662fc99be8d9936756fcf43db498ab56399fd2564736f6c634300081c003360a060405234801561000f575f5ffd5b5060405161068538038061068583398101604081905261002e916100f9565b6001600160a01b0383166080525f61004683826101ff565b50600161005382826101ff565b505050506102b9565b634e487b7160e01b5f52604160045260245ffd5b5f82601f83011261007f575f5ffd5b81516001600160401b038111156100985761009861005c565b604051601f8201601f19908116603f011681016001600160401b03811182821017156100c6576100c661005c565b6040528181528382016020018510156100dd575f5ffd5b8160208501602083015e5f918101602001919091529392505050565b5f5f5f6060848603121561010b575f5ffd5b83516001600160a01b0381168114610121575f5ffd5b60208501519093506001600160401b0381111561013c575f5ffd5b61014886828701610070565b604086015190935090506001600160401b03811115610165575f5ffd5b61017186828701610070565b9150509250925092565b600181811c9082168061018f57607f821691505b6020821081036101ad57634e487b7160e01b5f52602260045260245ffd5b50919050565b601f8211156101fa57805f5260205f20601f840160051c810160208510156101d85750805b601f840160051c820191505b818110156101f7575f81556001016101e4565b50505b505050565b81516001600160401b038111156102185761021861005c565b61022c81610226845461017b565b846101b3565b6020601f82116001811461025e575f83156102475750848201515b5f19600385901b1c1916600184901b1784556101f7565b5f84815260208120601f198516915b8281101561028d578785015182556020948501946001909201910161026d565b50848210156102aa57868401515f19600387901b60f8161c191681555b50505050600190811b01905550565b6080516103a86102dd5f395f818160530152818160d1015261015c01526103a85ff3fe608060405260043610610037575f3560e01c80637ce31fd11461010d578063e6bfd26a14610137578063f887ea401461014b576100ba565b366100ba57604051635cc0a4f360e01b81526001600160a01b037f00000000000000000000000000000000000000000000000000000000000000001690635cc0a4f390349061008f905f906001903390600401610300565b5f604051808303818588803b1580156100a6575f5ffd5b505af11580156100b8573d5f5f3e3d5ffd5b005b604051635cc0a4f360e01b81526001600160a01b037f00000000000000000000000000000000000000000000000000000000000000001690635cc0a4f390349061008f905f906001903390600401610300565b348015610118575f5ffd5b50610121610196565b60405161012e919061033d565b60405180910390f35b348015610142575f5ffd5b50610121610222565b348015610156575f5ffd5b5061017e7f000000000000000000000000000000000000000000000000000000000000000081565b6040516001600160a01b03909116815260200161012e565b600180546101a39061022a565b80601f01602080910402602001604051908101604052809291908181526020018280546101cf9061022a565b801561021a5780601f106101f15761010080835404028352916020019161021a565b820191905f5260205f20905b8154815290600101906020018083116101fd57829003601f168201915b505050505081565b5f80546101a3905b600181811c9082168061023e57607f821691505b60208210810361025c57634e487b7160e01b5f52602260045260245ffd5b50919050565b80545f90600181811c9082168061027a57607f821691505b60208210810361029857634e487b7160e01b5f52602260045260245ffd5b818652602086018180156102b357600181146102c9576102f5565b60ff198516825283151560051b820195506102f5565b5f878152602090205f5b858110156102ef578154848201526001909101906020016102d3565b83019650505b505050505092915050565b606081525f6103126060830186610262565b82810360208401526103248186610262565b91505060018060a01b0383166040830152949350505050565b602081525f82518060208401528060208501604085015e5f604082850101526040601f19601f8301168401019150509291505056fea264697066735822122000cd1b53395fae6c5f666955f82364592a5c035b5730e46cacc645d59a510d6a64736f6c634300081c0033a2646970667358221220d851a13da8d7f2bd91374f0fd8285f73f1c96a952382d05dc6b11d82aa7ad07564736f6c634300081c0033",
  "linkReferences": {},
  "deployedLinkReferences": {},
  "immutableReferences": {},
  "inputSourceName": "project/contracts/SwapRouter.sol",
  "buildInfoId": "solc-0_8_28-ecdf916aa2f633cfd7d4c683b52730d2450b3723"
}